:020000040000FA
:1000000083120313880186018316F03086000030C6
:100010008800831286010614061A2828861A2C28BE
:10002000061B302886018614061A3428861A3828BA
:10003000061B3C28860186010615061A4028861AEA
:100040004428061B48288601861586194C280A284C
:100050000730502088000A280830502088000A28DD
:100060000930502088000A280430502088000A28CF
:100070000530502088000A280630502088000A28C1
:100080000130502088000A280230502088000A28B9
:100090000330502088000A280030502088000A28A9
:1000A00082073F340634DB344F3466346D347D349C
:0600B00007347F346734C1
:00000001FF
