:020000040000FA
:1000000083120313880186018316F03086000030C6
:100010008800831286010614061A2428861A2828C6
:10002000061B2C2886018614061A3028861A3428C6
:10003000061B3828860186010615061A3C28861AF2
:100040004028061B44280A280730482088000A2830
:100050000830482088000A280930482088000A28EB
:100060000430482088000A280530482088000A28E3
:100070000630482088000A280130482088000A28D5
:100080000230482088000A280330482088000A28C7
:1000900082073F340634DB344F3466346D347D34AC
:0600A00007347F346734D1
:00000001FF
